{
  "_format": "hh-sol-artifact-1",
  "contractName": "Raise",
  "sourceName": "contracts/Raise.sol",
  "abi": [
    {
      "anonymous": false,
      "inputs": [
        {
          "indexed": false,
          "internalType": "uint256",
          "name": "proposalId",
          "type": "uint256"
        }
      ],
      "name": "ProposalCreated",
      "type": "event"
    },
    {
      "anonymous": false,
      "inputs": [
        {
          "indexed": false,
          "internalType": "uint256",
          "name": "proposalId",
          "type": "uint256"
        }
      ],
      "name": "ProposalFlagged",
      "type": "event"
    },
    {
      "anonymous": false,
      "inputs": [
        {
          "indexed": false,
          "internalType": "uint256",
          "name": "proposalId",
          "type": "uint256"
        },
        {
          "indexed": false,
          "internalType": "uint256",
          "name": "amount",
          "type": "uint256"
        }
      ],
      "name": "ProposalFunded",
      "type": "event"
    },
    {
      "inputs": [
        {
          "internalType": "uint256",
          "name": "_proposalId",
          "type": "uint256"
        },
        {
          "internalType": "uint256",
          "name": "_totalAmount",
          "type": "uint256"
        }
      ],
      "name": "createProposal",
      "outputs": [],
      "stateMutability": "nonpayable",
      "type": "function"
    },
    {
      "inputs": [
        {
          "internalType": "uint256",
          "name": "_proposalId",
          "type": "uint256"
        }
      ],
      "name": "flagProposal",
      "outputs": [],
      "stateMutability": "nonpayable",
      "type": "function"
    },
    {
      "inputs": [
        {
          "internalType": "uint256",
          "name": "_proposalId",
          "type": "uint256"
        }
      ],
      "name": "fundProposal",
      "outputs": [],
      "stateMutability": "payable",
      "type": "function"
    },
    {
      "inputs": [
        {
          "internalType": "uint256",
          "name": "id",
          "type": "uint256"
        }
      ],
      "name": "getProposal",
      "outputs": [
        {
          "components": [
            {
              "internalType": "uint256",
              "name": "totalAmount",
              "type": "uint256"
            },
            {
              "internalType": "uint256",
              "name": "amountRaised",
              "type": "uint256"
            },
            {
              "internalType": "address payable",
              "name": "proposalCreator",
              "type": "address"
            },
            {
              "internalType": "uint256",
              "name": "flagCount",
              "type": "uint256"
            },
            {
              "internalType": "bool",
              "name": "underInvestigation",
              "type": "bool"
            },
            {
              "internalType": "bool",
              "name": "FundsSent",
              "type": "bool"
            }
          ],
          "internalType": "struct Raise.Proposal",
          "name": "prop",
          "type": "tuple"
        }
      ],
      "stateMutability": "view",
      "type": "function"
    },
    {
      "inputs": [
        {
          "internalType": "uint256",
          "name": "_proposalId",
          "type": "uint256"
        }
      ],
      "name": "pauseProposal",
      "outputs": [],
      "stateMutability": "nonpayable",
      "type": "function"
    },
    {
      "inputs": [
        {
          "internalType": "uint256",
          "name": "_proposalId",
          "type": "uint256"
        }
      ],
      "name": "unpauseProposal",
      "outputs": [],
      "stateMutability": "nonpayable",
      "type": "function"
    },
    {
      "inputs": [
        {
          "internalType": "uint256",
          "name": "_proposalId",
          "type": "uint256"
        }
      ],
      "name": "withdrawFunds",
      "outputs": [],
      "stateMutability": "payable",
      "type": "function"
    }
  ],
  "bytecode": "0x608060405234801561001057600080fd5b50611514806100206000396000f3fe6080604052600436106100705760003560e01c8063a5e5cf961161004e578063a5e5cf96146100e3578063c7f758a81461010c578063e210f4b514610149578063f213d00c1461016557610070565b8063155dd5ee146100755780636935bda6146100915780637eaa6868146100ba575b600080fd5b61008f600480360381019061008a9190610e71565b61018e565b005b34801561009d57600080fd5b506100b860048036038101906100b39190610e9e565b6103e0565b005b3480156100c657600080fd5b506100e160048036038101906100dc9190610e71565b610680565b005b3480156100ef57600080fd5b5061010a60048036038101906101059190610e71565b61071a565b005b34801561011857600080fd5b50610133600480360381019061012e9190610e71565b6108f2565b6040516101409190610fc4565b60405180910390f35b610163600480360381019061015e9190610e71565b6109c8565b005b34801561017157600080fd5b5061018c60048036038101906101879190610e71565b610c52565b005b8060008060008381526020019081526020016000206040518060c001604052908160008201548152602001600182015481526020016002820160009054906101000a900473ffffffffffffffffffffffffffffffffffffffff1673ffffffffffffffffffffffffffffffffffffffff1673ffffffffffffffffffffffffffffffffffffffff168152602001600382015481526020016004820160009054906101000a900460ff161515151581526020016004820160019054906101000a900460ff16151515158152505090508060000151816020015110156102a5576040517f08c379a000000000000000000000000000000000000000000000000000000000815260040161029c9061103c565b60405180910390fd5b3373ffffffffffffffffffffffffffffffffffffffff16816040015173ffffffffffffffffffffffffffffffffffffffff1614610317576040517f08c379a000000000000000000000000000000000000000000000000000000000815260040161030e906110a8565b60405180910390fd5b600015158160800151151514610362576040517f08c379a000000000000000000000000000000000000000000000000000000000815260040161035990611114565b60405180910390fd5b600015158160a001511515146103ad576040517f08c379a00000000000000000000000000000000000000000000000000000000081526004016103a490611180565b60405180910390fd5b600160008085815260200190815260200160002060040160016101000a81548160ff021916908315150217905550505050565b818160008060008481526020019081526020016000206040518060c001604052908160008201548152602001600182015481526020016002820160009054906101000a900473ffffffffffffffffffffffffffffffffffffffff1673ffffffffffffffffffffffffffffffffffffffff1673ffffffffffffffffffffffffffffffffffffffff168152602001600382015481526020016004820160009054906101000a900460ff161515151581526020016004820160019054906101000a900460ff1615151515815250509050600082116104f0576040517f08c379a00000000000000000000000000000000000000000000000000000000081526004016104e7906111ec565b60405180910390fd5b6000816000015114610537576040517f08c379a000000000000000000000000000000000000000000000000000000000815260040161052e90611258565b60405180910390fd5b60006040518060c00160405280868152602001600081526020013373ffffffffffffffffffffffffffffffffffffffff1681526020016000815260200160001515815260200160001515815250905080600080888152602001908152602001600020600082015181600001556020820151816001015560408201518160020160006101000a81548173ffffffffffffffffffffffffffffffffffffffff021916908373ffffffffffffffffffffffffffffffffffffffff1602179055506060820151816003015560808201518160040160006101000a81548160ff02191690831515021790555060a08201518160040160016101000a81548160ff0219169083151502179055509050507fc2c021f5d73c63c481d336fbbafec58f694fc45095f00b02d2deb8cca59afe07866040516106709190611287565b60405180910390a1505050505050565b6001151560008083815260200190815260200160002060040160009054906101000a900460ff161515146106e9576040517f08c379a00000000000000000000000000000000000000000000000000000000081526004016106e0906112ee565b60405180910390fd5b600080600083815260200190815260200160002060040160006101000a81548160ff02191690831515021790555050565b8060008060008381526020019081526020016000206040518060c001604052908160008201548152602001600182015481526020016002820160009054906101000a900473ffffffffffffffffffffffffffffffffffffffff1673ffffffffffffffffffffffffffffffffffffffff1673ffffffffffffffffffffffffffffffffffffffff168152602001600382015481526020016004820160009054906101000a900460ff161515151581526020016004820160019054906101000a900460ff16151515158152505090508060000151816020015110610830576040517f08c379a00000000000000000000000000000000000000000000000000000000081526004016108279061135a565b60405180910390fd5b60001515816080015115151461087b576040517f08c379a0000000000000000000000000000000000000000000000000000000008152600401610872906113c6565b60405180910390fd5b60016000808581526020019081526020016000206003015461089d9190611415565b600080858152602001908152602001600020600301819055507f350056eecde74c3d49f975f689e20aacbf490094cbfc92a5f654c3f2a7a01364836040516108e59190611287565b60405180910390a1505050565b6108fa610de6565b6000808381526020019081526020016000206040518060c001604052908160008201548152602001600182015481526020016002820160009054906101000a900473ffffffffffffffffffffffffffffffffffffffff1673ffffffffffffffffffffffffffffffffffffffff1673ffffffffffffffffffffffffffffffffffffffff168152602001600382015481526020016004820160009054906101000a900460ff161515151581526020016004820160019054906101000a900460ff1615151515815250509050919050565b8060008060008381526020019081526020016000206040518060c001604052908160008201548152602001600182015481526020016002820160009054906101000a900473ffffffffffffffffffffffffffffffffffffffff1673ffffffffffffffffffffffffffffffffffffffff1673ffffffffffffffffffffffffffffffffffffffff168152602001600382015481526020016004820160009054906101000a900460ff161515151581526020016004820160019054906101000a900460ff16151515158152505090508060000151816020015110610ade576040517f08c379a0000000000000000000000000000000000000000000000000000000008152600401610ad59061135a565b60405180910390fd5b600015158160800151151514610b29576040517f08c379a0000000000000000000000000000000000000000000000000000000008152600401610b20906113c6565b60405180910390fd5b60003411610b6c576040517f08c379a0000000000000000000000000000000000000000000000000000000008152600401610b6390611495565b60405180910390fd5b60008084815260200190815260200160002060020160009054906101000a900473ffffffffffffffffffffffffffffffffffffffff1673ffffffffffffffffffffffffffffffffffffffff166108fc349081150290604051600060405180830381858888f19350505050158015610be7573d6000803e3d6000fd5b50346000808581526020019081526020016000206001016000828254610c0d9190611415565b925050819055507fe626ac29dddf069f3357c054c144b90e4e79f25ee6c1020f9142bae435477e6c8334604051610c459291906114b5565b60405180910390a1505050565b8060008060008381526020019081526020016000206040518060c001604052908160008201548152602001600182015481526020016002820160009054906101000a900473ffffffffffffffffffffffffffffffffffffffff1673ffffffffffffffffffffffffffffffffffffffff1673ffffffffffffffffffffffffffffffffffffffff168152602001600382015481526020016004820160009054906101000a900460ff161515151581526020016004820160019054906101000a900460ff16151515158152505090508060000151816020015110610d68576040517f08c379a0000000000000000000000000000000000000000000000000000000008152600401610d5f9061135a565b60405180910390fd5b600015158160800151151514610db3576040517f08c379a0000000000000000000000000000000000000000000000000000000008152600401610daa906113c6565b60405180910390fd5b600160008085815260200190815260200160002060040160006101000a81548160ff021916908315150217905550505050565b6040518060c001604052806000815260200160008152602001600073ffffffffffffffffffffffffffffffffffffffff168152602001600081526020016000151581526020016000151581525090565b600080fd5b6000819050919050565b610e4e81610e3b565b8114610e5957600080fd5b50565b600081359050610e6b81610e45565b92915050565b600060208284031215610e8757610e86610e36565b5b6000610e9584828501610e5c565b91505092915050565b60008060408385031215610eb557610eb4610e36565b5b6000610ec385828601610e5c565b9250506020610ed485828601610e5c565b9150509250929050565b610ee781610e3b565b82525050565b600073ffffffffffffffffffffffffffffffffffffffff82169050919050565b6000610f1882610eed565b9050919050565b610f2881610f0d565b82525050565b60008115159050919050565b610f4381610f2e565b82525050565b60c082016000820151610f5f6000850182610ede565b506020820151610f726020850182610ede565b506040820151610f856040850182610f1f565b506060820151610f986060850182610ede565b506080820151610fab6080850182610f3a565b5060a0820151610fbe60a0850182610f3a565b50505050565b600060c082019050610fd96000830184610f49565b92915050565b600082825260208201905092915050565b7f46756e64696e67206f6e676f696e670000000000000000000000000000000000600082015250565b6000611026600f83610fdf565b915061103182610ff0565b602082019050919050565b6000602082019050818103600083015261105581611019565b9050919050565b7f44656e6965642c206e6f742063726561746f7200000000000000000000000000600082015250565b6000611092601383610fdf565b915061109d8261105c565b602082019050919050565b600060208201905081810360008301526110c181611085565b9050919050565b7f496e7665737469676174696f6e206f6e676f696e670000000000000000000000600082015250565b60006110fe601583610fdf565b9150611109826110c8565b602082019050919050565b6000602082019050818103600083015261112d816110f1565b9050919050565b7f576974686472617720646f6e6500000000000000000000000000000000000000600082015250565b600061116a600d83610fdf565b915061117582611134565b602082019050919050565b600060208201905081810360008301526111998161115d565b9050919050565b7f496e63726561736520616d6f756e740000000000000000000000000000000000600082015250565b60006111d6600f83610fdf565b91506111e1826111a0565b602082019050919050565b60006020820190508181036000830152611205816111c9565b9050919050565b7f50726f706f73616c20616c726561647920657869737473000000000000000000600082015250565b6000611242601783610fdf565b915061124d8261120c565b602082019050919050565b6000602082019050818103600083015261127181611235565b9050919050565b61128181610e3b565b82525050565b600060208201905061129c6000830184611278565b92915050565b7f4e6f742070617573656400000000000000000000000000000000000000000000600082015250565b60006112d8600a83610fdf565b91506112e3826112a2565b602082019050919050565b60006020820190508181036000830152611307816112cb565b9050919050565b7f46756e64696e6720646f6e650000000000000000000000000000000000000000600082015250565b6000611344600c83610fdf565b915061134f8261130e565b602082019050919050565b6000602082019050818103600083015261137381611337565b9050919050565b7f5061757365640000000000000000000000000000000000000000000000000000600082015250565b60006113b0600683610fdf565b91506113bb8261137a565b602082019050919050565b600060208201905081810360008301526113df816113a3565b9050919050565b7f4e487b7100000000000000000000000000000000000000000000000000000000600052601160045260246000fd5b600061142082610e3b565b915061142b83610e3b565b9250828201905080821115611443576114426113e6565b5b92915050565b7f6e756c6c20616d6f756e74000000000000000000000000000000000000000000600082015250565b600061147f600b83610fdf565b915061148a82611449565b602082019050919050565b600060208201905081810360008301526114ae81611472565b9050919050565b60006040820190506114ca6000830185611278565b6114d76020830184611278565b939250505056fea2646970667358221220b3f405088cdebc5b2922bcab7c114a747cc4ef170c464da8ba6b63a347f4940e64736f6c63430008120033",
  "linkReferences": {},
  "deployedLinkReferences": {}
}