{
  "_format": "hh-sol-artifact-1",
  "contractName": "Raise",
  "sourceName": "contracts/Raise.sol",
  "abi": [
    {
      "anonymous": false,
      "inputs": [
        {
          "indexed": false,
          "internalType": "uint256",
          "name": "proposalId",
          "type": "uint256"
        }
      ],
      "name": "ProposalCreated",
      "type": "event"
    },
    {
      "anonymous": false,
      "inputs": [
        {
          "indexed": false,
          "internalType": "uint256",
          "name": "proposalId",
          "type": "uint256"
        },
        {
          "indexed": false,
          "internalType": "uint256",
          "name": "amount",
          "type": "uint256"
        }
      ],
      "name": "ProposalFunded",
      "type": "event"
    },
    {
      "inputs": [
        {
          "internalType": "uint256",
          "name": "_proposalId",
          "type": "uint256"
        },
        {
          "internalType": "uint256",
          "name": "_totalAmount",
          "type": "uint256"
        }
      ],
      "name": "createProposal",
      "outputs": [],
      "stateMutability": "nonpayable",
      "type": "function"
    },
    {
      "inputs": [
        {
          "internalType": "uint256",
          "name": "_proposalId",
          "type": "uint256"
        }
      ],
      "name": "flagProposal",
      "outputs": [],
      "stateMutability": "nonpayable",
      "type": "function"
    },
    {
      "inputs": [
        {
          "internalType": "uint256",
          "name": "_proposalId",
          "type": "uint256"
        }
      ],
      "name": "fundProposal",
      "outputs": [],
      "stateMutability": "payable",
      "type": "function"
    },
    {
      "inputs": [
        {
          "internalType": "uint256",
          "name": "id",
          "type": "uint256"
        }
      ],
      "name": "getProposal",
      "outputs": [
        {
          "components": [
            {
              "internalType": "uint256",
              "name": "totalAmount",
              "type": "uint256"
            },
            {
              "internalType": "uint256",
              "name": "amountRaised",
              "type": "uint256"
            },
            {
              "internalType": "address payable",
              "name": "proposalCreator",
              "type": "address"
            },
            {
              "internalType": "uint256",
              "name": "flagCount",
              "type": "uint256"
            },
            {
              "internalType": "bool",
              "name": "underInvestigation",
              "type": "bool"
            },
            {
              "internalType": "bool",
              "name": "FundsSent",
              "type": "bool"
            }
          ],
          "internalType": "struct Raise.Proposal",
          "name": "prop",
          "type": "tuple"
        }
      ],
      "stateMutability": "view",
      "type": "function"
    },
    {
      "inputs": [
        {
          "internalType": "uint256",
          "name": "_proposalId",
          "type": "uint256"
        }
      ],
      "name": "pauseProposal",
      "outputs": [],
      "stateMutability": "nonpayable",
      "type": "function"
    },
    {
      "inputs": [
        {
          "internalType": "uint256",
          "name": "_proposalId",
          "type": "uint256"
        }
      ],
      "name": "unpauseProposal",
      "outputs": [],
      "stateMutability": "nonpayable",
      "type": "function"
    },
    {
      "inputs": [
        {
          "internalType": "uint256",
          "name": "_proposalId",
          "type": "uint256"
        }
      ],
      "name": "withdrawFunds",
      "outputs": [],
      "stateMutability": "nonpayable",
      "type": "function"
    }
  ],
  "bytecode": "0x608060405234801561001057600080fd5b506111c7806100206000396000f3fe6080604052600436106100705760003560e01c8063a5e5cf961161004e578063a5e5cf96146100f0578063c7f758a814610119578063e210f4b514610156578063f213d00c1461017257610070565b8063155dd5ee146100755780636935bda61461009e5780637eaa6868146100c7575b600080fd5b34801561008157600080fd5b5061009c60048036038101906100979190610c98565b61019b565b005b3480156100aa57600080fd5b506100c560048036038101906100c09190610cc5565b610315565b005b3480156100d357600080fd5b506100ee60048036038101906100e99190610c98565b6104de565b005b3480156100fc57600080fd5b5061011760048036038101906101129190610c98565b610578565b005b34801561012557600080fd5b50610140600480360381019061013b9190610c98565b610719565b60405161014d9190610deb565b60405180910390f35b610170600480360381019061016b9190610c98565b6107ef565b005b34801561017e57600080fd5b5061019960048036038101906101949190610c98565b610a79565b005b60008060008381526020019081526020016000206040518060c001604052908160008201548152602001600182015481526020016002820160009054906101000a900473ffffffffffffffffffffffffffffffffffffffff1673ffffffffffffffffffffffffffffffffffffffff1673ffffffffffffffffffffffffffffffffffffffff168152602001600382015481526020016004820160009054906101000a900460ff161515151581526020016004820160019054906101000a900460ff16151515158152505090508060000151816020015110156102b1576040517f08c379a00000000000000000000000000000000000000000000000000000000081526004016102a890610e63565b60405180910390fd5b60018160a0019015159081151581525050806040015173ffffffffffffffffffffffffffffffffffffffff166108fc82600001519081150290604051600060405180830381858888f19350505050158015610310573d6000803e3d6000fd5b505050565b60405160200160405160208183030381529060405280519060200120826040516020016103429190610ea4565b6040516020818303038152906040528051906020012003610398576040517f08c379a000000000000000000000000000000000000000000000000000000000815260040161038f90610f0b565b60405180910390fd5b60006040518060c00160405280838152602001600081526020013373ffffffffffffffffffffffffffffffffffffffff1681526020016000815260200160001515815260200160001515815250905080600080858152602001908152602001600020600082015181600001556020820151816001015560408201518160020160006101000a81548173ffffffffffffffffffffffffffffffffffffffff021916908373ffffffffffffffffffffffffffffffffffffffff1602179055506060820151816003015560808201518160040160006101000a81548160ff02191690831515021790555060a08201518160040160016101000a81548160ff0219169083151502179055509050507fc2c021f5d73c63c481d336fbbafec58f694fc45095f00b02d2deb8cca59afe07836040516104d19190610f3a565b60405180910390a1505050565b6001151560008083815260200190815260200160002060040160009054906101000a900460ff16151514610547576040517f08c379a000000000000000000000000000000000000000000000000000000000815260040161053e90610fa1565b60405180910390fd5b600080600083815260200190815260200160002060040160006101000a81548160ff02191690831515021790555050565b8060008060008381526020019081526020016000206040518060c001604052908160008201548152602001600182015481526020016002820160009054906101000a900473ffffffffffffffffffffffffffffffffffffffff1673ffffffffffffffffffffffffffffffffffffffff1673ffffffffffffffffffffffffffffffffffffffff168152602001600382015481526020016004820160009054906101000a900460ff161515151581526020016004820160019054906101000a900460ff1615151515815250509050806000015181602001511061068e576040517f08c379a00000000000000000000000000000000000000000000000000000000081526004016106859061100d565b60405180910390fd5b6000151581608001511515146106d9576040517f08c379a00000000000000000000000000000000000000000000000000000000081526004016106d090611079565b60405180910390fd5b6001600080858152602001908152602001600020600301546106fb91906110c8565b60008085815260200190815260200160002060030181905550505050565b610721610c0d565b6000808381526020019081526020016000206040518060c001604052908160008201548152602001600182015481526020016002820160009054906101000a900473ffffffffffffffffffffffffffffffffffffffff1673ffffffffffffffffffffffffffffffffffffffff1673ffffffffffffffffffffffffffffffffffffffff168152602001600382015481526020016004820160009054906101000a900460ff161515151581526020016004820160019054906101000a900460ff1615151515815250509050919050565b8060008060008381526020019081526020016000206040518060c001604052908160008201548152602001600182015481526020016002820160009054906101000a900473ffffffffffffffffffffffffffffffffffffffff1673ffffffffffffffffffffffffffffffffffffffff1673ffffffffffffffffffffffffffffffffffffffff168152602001600382015481526020016004820160009054906101000a900460ff161515151581526020016004820160019054906101000a900460ff16151515158152505090508060000151816020015110610905576040517f08c379a00000000000000000000000000000000000000000000000000000000081526004016108fc9061100d565b60405180910390fd5b600015158160800151151514610950576040517f08c379a000000000000000000000000000000000000000000000000000000000815260040161094790611079565b60405180910390fd5b60003411610993576040517f08c379a000000000000000000000000000000000000000000000000000000000815260040161098a90611148565b60405180910390fd5b60008084815260200190815260200160002060020160009054906101000a900473ffffffffffffffffffffffffffffffffffffffff1673ffffffffffffffffffffffffffffffffffffffff166108fc349081150290604051600060405180830381858888f19350505050158015610a0e573d6000803e3d6000fd5b50346000808581526020019081526020016000206001016000828254610a3491906110c8565b925050819055507fe626ac29dddf069f3357c054c144b90e4e79f25ee6c1020f9142bae435477e6c8334604051610a6c929190611168565b60405180910390a1505050565b8060008060008381526020019081526020016000206040518060c001604052908160008201548152602001600182015481526020016002820160009054906101000a900473ffffffffffffffffffffffffffffffffffffffff1673ffffffffffffffffffffffffffffffffffffffff1673ffffffffffffffffffffffffffffffffffffffff168152602001600382015481526020016004820160009054906101000a900460ff161515151581526020016004820160019054906101000a900460ff16151515158152505090508060000151816020015110610b8f576040517f08c379a0000000000000000000000000000000000000000000000000000000008152600401610b869061100d565b60405180910390fd5b600015158160800151151514610bda576040517f08c379a0000000000000000000000000000000000000000000000000000000008152600401610bd190611079565b60405180910390fd5b600160008085815260200190815260200160002060040160006101000a81548160ff021916908315150217905550505050565b6040518060c001604052806000815260200160008152602001600073ffffffffffffffffffffffffffffffffffffffff168152602001600081526020016000151581526020016000151581525090565b600080fd5b6000819050919050565b610c7581610c62565b8114610c8057600080fd5b50565b600081359050610c9281610c6c565b92915050565b600060208284031215610cae57610cad610c5d565b5b6000610cbc84828501610c83565b91505092915050565b60008060408385031215610cdc57610cdb610c5d565b5b6000610cea85828601610c83565b9250506020610cfb85828601610c83565b9150509250929050565b610d0e81610c62565b82525050565b600073ffffffffffffffffffffffffffffffffffffffff82169050919050565b6000610d3f82610d14565b9050919050565b610d4f81610d34565b82525050565b60008115159050919050565b610d6a81610d55565b82525050565b60c082016000820151610d866000850182610d05565b506020820151610d996020850182610d05565b506040820151610dac6040850182610d46565b506060820151610dbf6060850182610d05565b506080820151610dd26080850182610d61565b5060a0820151610de560a0850182610d61565b50505050565b600060c082019050610e006000830184610d70565b92915050565b600082825260208201905092915050565b7f46756e64696e67206f6e676f696e670000000000000000000000000000000000600082015250565b6000610e4d600f83610e06565b9150610e5882610e17565b602082019050919050565b60006020820190508181036000830152610e7c81610e40565b9050919050565b6000819050919050565b610e9e610e9982610c62565b610e83565b82525050565b6000610eb08284610e8d565b60208201915081905092915050565b7f6e6f2070726f706f73616c496400000000000000000000000000000000000000600082015250565b6000610ef5600d83610e06565b9150610f0082610ebf565b602082019050919050565b60006020820190508181036000830152610f2481610ee8565b9050919050565b610f3481610c62565b82525050565b6000602082019050610f4f6000830184610f2b565b92915050565b7f4e6f742070617573656400000000000000000000000000000000000000000000600082015250565b6000610f8b600a83610e06565b9150610f9682610f55565b602082019050919050565b60006020820190508181036000830152610fba81610f7e565b9050919050565b7f46756e64696e6720646f6e650000000000000000000000000000000000000000600082015250565b6000610ff7600c83610e06565b915061100282610fc1565b602082019050919050565b6000602082019050818103600083015261102681610fea565b9050919050565b7f5061757365640000000000000000000000000000000000000000000000000000600082015250565b6000611063600683610e06565b915061106e8261102d565b602082019050919050565b6000602082019050818103600083015261109281611056565b9050919050565b7f4e487b7100000000000000000000000000000000000000000000000000000000600052601160045260246000fd5b60006110d382610c62565b91506110de83610c62565b92508282019050808211156110f6576110f5611099565b5b92915050565b7f6e756c6c20616d6f756e74000000000000000000000000000000000000000000600082015250565b6000611132600b83610e06565b915061113d826110fc565b602082019050919050565b6000602082019050818103600083015261116181611125565b9050919050565b600060408201905061117d6000830185610f2b565b61118a6020830184610f2b565b939250505056fea26469706673582212206b074962c2e0b35c74609e93cb14fde35a7ea01d053719efd93fe64502e8440664736f6c63430008120033",
  "linkReferences": {},
  "deployedLinkReferences": {}
}